{
  "contractName": "PortfolioBalancerV2",
  "abi": [
    {
      "inputs": [],
      "stateMutability": "nonpayable",
      "type": "constructor"
    },
    {
      "anonymous": false,
      "inputs": [
        {
          "indexed": true,
          "internalType": "address",
          "name": "previousOwner",
          "type": "address"
        },
        {
          "indexed": true,
          "internalType": "address",
          "name": "newOwner",
          "type": "address"
        }
      ],
      "name": "OwnershipTransferred",
      "type": "event"
    },
    {
      "inputs": [],
      "name": "owner",
      "outputs": [
        {
          "internalType": "address",
          "name": "",
          "type": "address"
        }
      ],
      "stateMutability": "view",
      "type": "function"
    },
    {
      "inputs": [],
      "name": "renounceOwnership",
      "outputs": [],
      "stateMutability": "nonpayable",
      "type": "function"
    },
    {
      "inputs": [
        {
          "internalType": "address",
          "name": "newOwner",
          "type": "address"
        }
      ],
      "name": "transferOwnership",
      "outputs": [],
      "stateMutability": "nonpayable",
      "type": "function"
    },
    {
      "inputs": [],
      "name": "uniswapV2Router",
      "outputs": [
        {
          "internalType": "contract IUniswapV2Router02",
          "name": "",
          "type": "address"
        }
      ],
      "stateMutability": "view",
      "type": "function"
    },
    {
      "inputs": [
        {
          "internalType": "address[]",
          "name": "_tokenAddresses",
          "type": "address[]"
        },
        {
          "internalType": "uint256[]",
          "name": "_amountInETHForToken",
          "type": "uint256[]"
        },
        {
          "internalType": "uint256[]",
          "name": "_amountOutMinToken",
          "type": "uint256[]"
        }
      ],
      "name": "rebalance",
      "outputs": [],
      "stateMutability": "payable",
      "type": "function"
    }
  ],
  "bytecode": "0x60806040526000600160146101000a81548160ff02191690831515021790555073d0a1e359811322d97991e03f863a0c30c2cf029c600260006101000a81548173ffffffffffffffffffffffffffffffffffffffff021916908373ffffffffffffffffffffffffffffffffffffffff16021790555073e22da380ee6b445bb8273c81944adeb6e8450422600360006101000a81548173ffffffffffffffffffffffffffffffffffffffff021916908373ffffffffffffffffffffffffffffffffffffffff160217905550737a250d5630b4cf539739df2c5dacb4c659f2488d600460006101000a81548173ffffffffffffffffffffffffffffffffffffffff021916908373ffffffffffffffffffffffffffffffffffffffff16021790555034801561012a57600080fd5b50600160008190555060006101436101e760201b60201c565b905080600160006101000a81548173ffffffffffffffffffffffffffffffffffffffff021916908373ffffffffffffffffffffffffffffffffffffffff1602179055508073ffffffffffffffffffffffffffffffffffffffff16600073ffffffffffffffffffffffffffffffffffffffff167f8be0079c531659141344cd1fd0a4f28419497f9722a3daafe3b4186f6b6457e060405160405180910390a3506101ef565b600033905090565b611133806101fe6000396000f3fe60806040526004361061004a5760003560e01c80631694505e1461004f578063715018a6146100905780638da5cb5b146100a7578063c39c12b2146100e8578063f2fde38b146102c8575b600080fd5b34801561005b57600080fd5b50610064610319565b604051808273ffffffffffffffffffffffffffffffffffffffff16815260200191505060405180910390f35b34801561009c57600080fd5b506100a561033f565b005b3480156100b357600080fd5b506100bc6104af565b604051808273ffffffffffffffffffffffffffffffffffffffff16815260200191505060405180910390f35b6102c6600480360360608110156100fe57600080fd5b810190808035906020019064010000000081111561011b57600080fd5b82018360208201111561012d57600080fd5b8035906020019184602083028401116401000000008311171561014f57600080fd5b919080806020026020016040519081016040528093929190818152602001838360200280828437600081840152601f19601f820116905080830192505050505050509192919290803590602001906401000000008111156101af57600080fd5b8201836020820111156101c157600080fd5b803590602001918460208302840111640100000000831117156101e357600080fd5b919080806020026020016040519081016040528093929190818152602001838360200280828437600081840152601f19601f8201169050808301925050505050505091929192908035906020019064010000000081111561024357600080fd5b82018360208201111561025557600080fd5b8035906020019184602083028401116401000000008311171561027757600080fd5b919080806020026020016040519081016040528093929190818152602001838360200280828437600081840152601f19601f8201169050808301925050505050505091929192905050506104d9565b005b3480156102d457600080fd5b50610317600480360360208110156102eb57600080fd5b81019080803573ffffffffffffffffffffffffffffffffffffffff169060200190929190505050610e52565b005b600460009054906101000a900473ffffffffffffffffffffffffffffffffffffffff1681565b610347611047565b73ffffffffffffffffffffffffffffffffffffffff166103656104af565b73ffffffffffffffffffffffffffffffffffffffff16146103ee576040517f08c379a00000000000000000000000000000000000000000000000000000000081526004018080602001828103825260208152602001807f4f776e61626c653a2063616c6c6572206973206e6f7420746865206f776e657281525060200191505060405180910390fd5b600073ffffffffffffffffffffffffffffffffffffffff16600160009054906101000a900473ffffffffffffffffffffffffffffffffffffffff1673ffffffffffffffffffffffffffffffffffffffff167f8be0079c531659141344cd1fd0a4f28419497f9722a3daafe3b4186f6b6457e060405160405180910390a36000600160006101000a81548173ffffffffffffffffffffffffffffffffffffffff021916908373ffffffffffffffffffffffffffffffffffffffff160217905550565b6000600160009054906101000a900473ffffffffffffffffffffffffffffffffffffffff16905090565b60026000541415610552576040517f08c379a000000000000000000000000000000000000000000000000000000000815260040180806020018281038252601f8152602001807f5265656e7472616e637947756172643a207265656e7472616e742063616c6c0081525060200191505060405180910390fd5b60026000819055506060600267ffffffffffffffff8111801561057457600080fd5b506040519080825280602002602001820160405280156105a35781602001602082028036833780820191505090505b509050600260009054906101000a900473ffffffffffffffffffffffffffffffffffffffff16816000815181106105d657fe5b602002602001019073ffffffffffffffffffffffffffffffffffffffff16908173ffffffffffffffffffffffffffffffffffffffff16815250506000805b84518110156106525761064385828151811061062c57fe5b60200260200101518361104f90919063ffffffff16565b91508080600101915050610614565b50348110156106c9576040517f08c379a000000000000000000000000000000000000000000000000000000000815260040180806020018281038252600f8152602001807f6e6f7420656e6f6f75676820455448000000000000000000000000000000000081525060200191505060405180910390fd5b60005b8551811015610e4257600360009054906101000a900473ffffffffffffffffffffffffffffffffffffffff1673ffffffffffffffffffffffffffffffffffffffff1686828151811061071a57fe5b602002602001015173ffffffffffffffffffffffffffffffffffffffff161415610bf55785818151811061074a57fe5b60200260200101518360018151811061075f57fe5b602002602001019073ffffffffffffffffffffffffffffffffffffffff16908173ffffffffffffffffffffffffffffffffffffffff16815250506060600460009054906101000a900473ffffffffffffffffffffffffffffffffffffffff1673ffffffffffffffffffffffffffffffffffffffff16637ff36ab58784815181106107e557fe5b60200260200101518785815181106107f957fe5b6020026020010151873060b442016040518663ffffffff1660e01b815260040180858152602001806020018473ffffffffffffffffffffffffffffffffffffffff168152602001838152602001828103825285818151815260200191508051906020019060200280838360005b83811015610881578082015181840152602081019050610866565b50505050905001955050505050506000604051808303818588803b1580156108a857600080fd5b505af11580156108bc573d6000803e3d6000fd5b50505050506040513d6000823e3d601f19601f8201168201806040525060208110156108e757600080fd5b810190808051604051939291908464010000000082111561090757600080fd5b8382019150602082018581111561091d57600080fd5b825186602082028301116401000000008211171561093a57600080fd5b8083526020830192505050908051906020019060200280838360005b83811015610971578082015181840152602081019050610956565b50505050905001604052505050905060007388757f2f99175387ab4c6a4b3067c77a695b0349905060008173ffffffffffffffffffffffffffffffffffffffff16630261bf8b6040518163ffffffff1660e01b815260040160206040518083038186803b1580156109e157600080fd5b505afa1580156109f5573d6000803e3d6000fd5b505050506040513d6020811015610a0b57600080fd5b810190808051906020019092919050505090506000600360009054906101000a900473ffffffffffffffffffffffffffffffffffffffff1673ffffffffffffffffffffffffffffffffffffffff1663095ea7b38386600181518110610a6c57fe5b60200260200101516040518363ffffffff1660e01b8152600401808373ffffffffffffffffffffffffffffffffffffffff16815260200182815260200192505050602060405180830381600087803b158015610ac757600080fd5b505af1158015610adb573d6000803e3d6000fd5b505050506040513d6020811015610af157600080fd5b8101908080519060200190929190505050508173ffffffffffffffffffffffffffffffffffffffff1663e8eda9df600360009054906101000a900473ffffffffffffffffffffffffffffffffffffffff1686600181518110610b4f57fe5b602002602001015133856040518563ffffffff1660e01b8152600401808573ffffffffffffffffffffffffffffffffffffffff1681526020018481526020018373ffffffffffffffffffffffffffffffffffffffff1681526020018261ffff168152602001945050505050600060405180830381600087803b158015610bd457600080fd5b505af1158015610be8573d6000803e3d6000fd5b5050505050505050610e35565b858181518110610c0157fe5b602002602001015183600181518110610c1657fe5b602002602001019073ffffffffffffffffffffffffffffffffffffffff16908173ffffffffffffffffffffffffffffffffffffffff1681525050600460009054906101000a900473ffffffffffffffffffffffffffffffffffffffff1673ffffffffffffffffffffffffffffffffffffffff16637ff36ab5868381518110610c9a57fe5b6020026020010151868481518110610cae57fe5b6020026020010151863360b442016040518663ffffffff1660e01b815260040180858152602001806020018473ffffffffffffffffffffffffffffffffffffffff168152602001838152602001828103825285818151815260200191508051906020019060200280838360005b83811015610d36578082015181840152602081019050610d1b565b50505050905001955050505050506000604051808303818588803b158015610d5d57600080fd5b505af1158015610d71573d6000803e3d6000fd5b50505050506040513d6000823e3d601f19601f820116820180604052506020811015610d9c57600080fd5b8101908080516040519392919084640100000000821115610dbc57600080fd5b83820191506020820185811115610dd257600080fd5b8251866020820283011164010000000082111715610def57600080fd5b8083526020830192505050908051906020019060200280838360005b83811015610e26578082015181840152602081019050610e0b565b50505050905001604052505050505b80806001019150506106cc565b5050506001600081905550505050565b610e5a611047565b73ffffffffffffffffffffffffffffffffffffffff16610e786104af565b73ffffffffffffffffffffffffffffffffffffffff1614610f01576040517f08c379a00000000000000000000000000000000000000000000000000000000081526004018080602001828103825260208152602001807f4f776e61626c653a2063616c6c6572206973206e6f7420746865206f776e657281525060200191505060405180910390fd5b600073ffffffffffffffffffffffffffffffffffffffff168173ffffffffffffffffffffffffffffffffffffffff161415610f87576040517f08c379a00000000000000000000000000000000000000000000000000000000081526004018080602001828103825260268152602001806110d86026913960400191505060405180910390fd5b8073ffffffffffffffffffffffffffffffffffffffff16600160009054906101000a900473ffffffffffffffffffffffffffffffffffffffff1673ffffffffffffffffffffffffffffffffffffffff167f8be0079c531659141344cd1fd0a4f28419497f9722a3daafe3b4186f6b6457e060405160405180910390a380600160006101000a81548173ffffffffffffffffffffffffffffffffffffffff021916908373ffffffffffffffffffffffffffffffffffffffff16021790555050565b600033905090565b6000808284019050838110156110cd576040517f08c379a000000000000000000000000000000000000000000000000000000000815260040180806020018281038252601b8152602001807f536166654d6174683a206164646974696f6e206f766572666c6f77000000000081525060200191505060405180910390fd5b809150509291505056fe4f776e61626c653a206e6577206f776e657220697320746865207a65726f2061646472657373a2646970667358221220578c388510206e018920ec5f9d544dadbc7773d4e678037e96cbb0cd90d932ad64736f6c634300060c0033",
  "immutableReferences": {},
  "source": "pragma solidity ^0.6.0;\n\n//openzeppelin\nimport \"@openzeppelin/contracts/utils/ReentrancyGuard.sol\";\nimport \"@openzeppelin/contracts/access/Ownable.sol\";\nimport \"@openzeppelin/contracts/math/SafeMath.sol\";\n\ninterface IUniswapV2Router02 {\n    function factory() external pure returns (address);\n\n    function WETH() external pure returns (address);\n\n    function addLiquidity(\n        address tokenA,\n        address tokenB,\n        uint256 amountADesired,\n        uint256 amountBDesired,\n        uint256 amountAMin,\n        uint256 amountBMin,\n        address to,\n        uint256 deadline\n    )\n        external\n        returns (\n            uint256 amountA,\n            uint256 amountB,\n            uint256 liquidity\n        );\n\n    function addLiquidityETH(\n        address token,\n        uint256 amountTokenDesired,\n        uint256 amountTokenMin,\n        uint256 amountETHMin,\n        address to,\n        uint256 deadline\n    )\n        external\n        payable\n        returns (\n            uint256 amountToken,\n            uint256 amountETH,\n            uint256 liquidity\n        );\n\n    function removeLiquidity(\n        address tokenA,\n        address tokenB,\n        uint256 liquidity,\n        uint256 amountAMin,\n        uint256 amountBMin,\n        address to,\n        uint256 deadline\n    ) external returns (uint256 amountA, uint256 amountB);\n\n    function removeLiquidityETH(\n        address token,\n        uint256 liquidity,\n        uint256 amountTokenMin,\n        uint256 amountETHMin,\n        address to,\n        uint256 deadline\n    ) external returns (uint256 amountToken, uint256 amountETH);\n\n    function removeLiquidityWithPermit(\n        address tokenA,\n        address tokenB,\n        uint256 liquidity,\n        uint256 amountAMin,\n        uint256 amountBMin,\n        address to,\n        uint256 deadline,\n        bool approveMax,\n        uint8 v,\n        bytes32 r,\n        bytes32 s\n    ) external returns (uint256 amountA, uint256 amountB);\n\n    function removeLiquidityETHWithPermit(\n        address token,\n        uint256 liquidity,\n        uint256 amountTokenMin,\n        uint256 amountETHMin,\n        address to,\n        uint256 deadline,\n        bool approveMax,\n        uint8 v,\n        bytes32 r,\n        bytes32 s\n    ) external returns (uint256 amountToken, uint256 amountETH);\n\n    function swapExactTokensForTokens(\n        uint256 amountIn,\n        uint256 amountOutMin,\n        address[] calldata path,\n        address to,\n        uint256 deadline\n    ) external returns (uint256[] memory amounts);\n\n    function swapTokensForExactTokens(\n        uint256 amountOut,\n        uint256 amountInMax,\n        address[] calldata path,\n        address to,\n        uint256 deadline\n    ) external returns (uint256[] memory amounts);\n\n    function swapExactETHForTokens(\n        uint256 amountOutMin,\n        address[] calldata path,\n        address to,\n        uint256 deadline\n    ) external payable returns (uint256[] memory amounts);\n\n    function swapTokensForExactETH(\n        uint256 amountOut,\n        uint256 amountInMax,\n        address[] calldata path,\n        address to,\n        uint256 deadline\n    ) external returns (uint256[] memory amounts);\n\n    function swapExactTokensForETH(\n        uint256 amountIn,\n        uint256 amountOutMin,\n        address[] calldata path,\n        address to,\n        uint256 deadline\n    ) external returns (uint256[] memory amounts);\n\n    function swapETHForExactTokens(\n        uint256 amountOut,\n        address[] calldata path,\n        address to,\n        uint256 deadline\n    ) external payable returns (uint256[] memory amounts);\n\n    function removeLiquidityETHSupportingFeeOnTransferTokens(\n        address token,\n        uint256 liquidity,\n        uint256 amountTokenMin,\n        uint256 amountETHMin,\n        address to,\n        uint256 deadline\n    ) external returns (uint256 amountETH);\n\n    function removeLiquidityETHWithPermitSupportingFeeOnTransferTokens(\n        address token,\n        uint256 liquidity,\n        uint256 amountTokenMin,\n        uint256 amountETHMin,\n        address to,\n        uint256 deadline,\n        bool approveMax,\n        uint8 v,\n        bytes32 r,\n        bytes32 s\n    ) external returns (uint256 amountETH);\n\n    function swapExactTokensForTokensSupportingFeeOnTransferTokens(\n        uint256 amountIn,\n        uint256 amountOutMin,\n        address[] calldata path,\n        address to,\n        uint256 deadline\n    ) external;\n\n    function swapExactETHForTokensSupportingFeeOnTransferTokens(\n        uint256 amountOutMin,\n        address[] calldata path,\n        address to,\n        uint256 deadline\n    ) external payable;\n\n    function swapExactTokensForETHSupportingFeeOnTransferTokens(\n        uint256 amountIn,\n        uint256 amountOutMin,\n        address[] calldata path,\n        address to,\n        uint256 deadline\n    ) external;\n\n    function quote(\n        uint256 amountA,\n        uint256 reserveA,\n        uint256 reserveB\n    ) external pure returns (uint256 amountB);\n\n    function getAmountOut(\n        uint256 amountIn,\n        uint256 reserveIn,\n        uint256 reserveOut\n    ) external pure returns (uint256 amountOut);\n\n    function getAmountIn(\n        uint256 amountOut,\n        uint256 reserveIn,\n        uint256 reserveOut\n    ) external pure returns (uint256 amountIn);\n\n    function getAmountsOut(uint256 amountIn, address[] calldata path)\n        external\n        view\n        returns (uint256[] memory amounts);\n\n    function getAmountsIn(uint256 amountOut, address[] calldata path)\n        external\n        view\n        returns (uint256[] memory amounts);\n}\n\ninterface IERC20 {\n    /**\n     * @dev Returns the number of decimals.\n     */\n    function decimals() external view returns (uint256);\n\n    /**\n     * @dev Returns the amount of tokens in existence.\n     */\n    function totalSupply() external view returns (uint256);\n\n    /**\n     * @dev Returns the amount of tokens owned by `account`.\n     */\n    function balanceOf(address account) external view returns (uint256);\n\n    /**\n     * @dev Moves `amount` tokens from the caller's account to `recipient`.\n     *\n     * Returns a boolean value indicating whether the operation succeeded.\n     *\n     * Emits a {Transfer} event.\n     */\n    function transfer(address recipient, uint256 amount)\n        external\n        returns (bool);\n\n    /**\n     * @dev Returns the remaining number of tokens that `spender` will be\n     * allowed to spend on behalf of `owner` through {transferFrom}. This is\n     * zero by default.\n     *\n     * This value changes when {approve} or {transferFrom} are called.\n     */\n    function allowance(address owner, address spender)\n        external\n        view\n        returns (uint256);\n\n    /**\n     * @dev Sets `amount` as the allowance of `spender` over the caller's tokens.\n     *\n     * Returns a boolean value indicating whether the operation succeeded.\n     *\n     * IMPORTANT: Beware that changing an allowance with this method brings the risk\n     * that someone may use both the old and the new allowance by unfortunate\n     * transaction ordering. One possible solution to mitigate this race\n     * condition is to first reduce the spender's allowance to 0 and set the\n     * desired value afterwards:\n     * https://github.com/ethereum/EIPs/issues/20#issuecomment-263524729\n     *\n     * Emits an {Approval} event.\n     */\n    function approve(address spender, uint256 amount) external returns (bool);\n\n    /**\n     * @dev Moves `amount` tokens from `sender` to `recipient` using the\n     * allowance mechanism. `amount` is then deducted from the caller's\n     * allowance.\n     *\n     * Returns a boolean value indicating whether the operation succeeded.\n     *\n     * Emits a {Transfer} event.\n     */\n    function transferFrom(\n        address sender,\n        address recipient,\n        uint256 amount\n    ) external returns (bool);\n\n    /**\n     * @dev Emitted when `value` tokens are moved from one account (`from`) to\n     * another (`to`).\n     *\n     * Note that `value` may be zero.\n     */\n    event Transfer(address indexed from, address indexed to, uint256 value);\n\n    /**\n     * @dev Emitted when the allowance of a `spender` for an `owner` is set by\n     * a call to {approve}. `value` is the new allowance.\n     */\n    event Approval(\n        address indexed owner,\n        address indexed spender,\n        uint256 value\n    );\n}\n\ninterface CErc20 {\n    function mint(uint256) external returns (uint256);\n\n    function exchangeRateCurrent() external returns (uint256);\n\n    function supplyRatePerBlock() external returns (uint256);\n\n    function redeem(uint256) external returns (uint256);\n\n    function redeemUnderlying(uint256) external returns (uint256);\n}\n\ninterface LendingPoolAddressesProvider {\n    function getLendingPool() external view returns (address);\n}\n\ninterface LendingPool {\n    function deposit(\n        address _reserve,\n        uint256 _amount,\n        address _onBehalfOf,\n        uint16 _referralCode\n    ) external payable;\n}\n\ncontract PortfolioBalancerV2 is ReentrancyGuard, Ownable {\n    using SafeMath for uint256;\n\n    bool private stopped = false;\n\n    address WETHAddress = 0xd0A1E359811322d97991E03f863a0C30C2cF029C;\n    address USDCAddress = 0xe22da380ee6B445bb8273C81944ADEB6E8450422;\n\n    IUniswapV2Router02 public uniswapV2Router = IUniswapV2Router02(\n        0x7a250d5630B4cF539739dF2C5dAcb4c659F2488D\n    );\n\n    constructor() public {}\n\n    /**\n    @notice This function is used to buy different ERC20 token on uniswap excahnge\n    @param _tokenAddresses adressers of ERC20 tokens\n    @param _amountInETHForToken amount of ETH to pay for token\n    @param _amountOutMinToken The minimum amount of token\n     */\n\n    function rebalance(\n        address[] memory _tokenAddresses,\n        uint256[] memory _amountInETHForToken,\n        uint256[] memory _amountOutMinToken\n\n    ) public payable nonReentrant {\n\n        address[] memory path = new address[](2);\n        path[0] = WETHAddress;\n        uint256 totalIn = 0;\n        for (uint256 i = 0; i < _amountInETHForToken.length; i++) {\n            totalIn = totalIn.add(_amountInETHForToken[i]);\n        }\n\n        require(totalIn >= msg.value, \"not enoough ETH\");\n        \n        for (uint256 i = 0; i < _tokenAddresses.length; i++) {\n\n            if (_tokenAddresses[i] == USDCAddress) {\n                path[1] = _tokenAddresses[i];\n                uint256[] memory amountOut = uniswapV2Router.swapExactETHForTokens{ value: _amountInETHForToken[i] }(\n                _amountOutMinToken[i],\n                path,\n                address(this),\n                now + 180);\n                // Deposit USDC into AAve\n                // retrieve LendingPool address\n                LendingPoolAddressesProvider provider = LendingPoolAddressesProvider(\n                    address(0x88757f2f99175387aB4C6a4b3067c77A695b0349)\n                );\n                LendingPool lendingPool = LendingPool(provider.getLendingPool());\n\n                uint16 referral = 0;\n\n                // Approve LendingPool contract to move your USDC\n                IERC20(USDCAddress).approve(\n                    address(lendingPool),\n                    amountOut[1]\n                );\n\n                // Deposit USDC\n                lendingPool.deposit(USDCAddress, amountOut[1], msg.sender, referral);\n            } else {\n                path[1] = _tokenAddresses[i];\n                uniswapV2Router.swapExactETHForTokens{ value: _amountInETHForToken[i] }(\n                _amountOutMinToken[i],\n                path,\n                msg.sender,\n                now + 180);\n            }\n            \n        }\n    }\n}\n",
  "sourcePath": "/Users/jan/defi/cantillon-solidity/contracts/PortfolioBalancerV2.sol",
  "compiler": {
    "name": "solc",
    "version": "0.6.12+commit.27d51765.Emscripten.clang"
  },
  "schemaVersion": "3.3.4",
  "updatedAt": "2021-03-22T09:37:06.125Z",
  "devdoc": {
    "kind": "dev",
    "methods": {
      "owner()": {
        "details": "Returns the address of the current owner."
      },
      "rebalance(address[],uint256[],uint256[])": {
        "params": {
          "_amountInETHForToken": "amount of ETH to pay for token",
          "_amountOutMinToken": "The minimum amount of token",
          "_tokenAddresses": "adressers of ERC20 tokens"
        }
      },
      "renounceOwnership()": {
        "details": "Leaves the contract without owner. It will not be possible to call `onlyOwner` functions anymore. Can only be called by the current owner. NOTE: Renouncing ownership will leave the contract without an owner, thereby removing any functionality that is only available to the owner."
      },
      "transferOwnership(address)": {
        "details": "Transfers ownership of the contract to a new account (`newOwner`). Can only be called by the current owner."
      }
    },
    "version": 1
  },
  "userdoc": {
    "kind": "user",
    "methods": {
      "rebalance(address[],uint256[],uint256[])": {
        "notice": "This function is used to buy different ERC20 token on uniswap excahnge"
      }
    },
    "version": 1
  }
}